:020000040800F2
:1000000000000220C9300008112F0008132F00083B
:10001000152F0008172F0008192F000800000000F6
:100020000000000000000000000000001B2F00087E
:100030001D2F0008000000001F2F0008212F0008BE
:100040001931000819310008193100081931000868
:100050001931000819310008193100081931000858
:10006000193100081931000819310008292F00083A
:100070001931000819310008193100081931000838
:1000800019310008392F000819310008193100080A
:100090001931000819310008193100081931000818
:1000A0001931000819310008193100081931000808
:1000B00019310008193100081931000819310008F8
:1000C00019310008193100081931000819310008E8
:1000D00019310008193100081931000819310008D8
:1000E00019310008193100081931000819310008C8
:1000F00019310008193100081931000819310008B8
:1001000019310008193100081931000819310008A7
:100110001931000819310008193100081931000897
:100120001931000819310008193100081931000887
:100130001931000819310008193100081931000877
:100140001931000819310008193100081931000867
:100150001931000819310008193100081931000857
:100160001931000819310008193100081931000847
:100170001931000819310008193100080000000089
:080180001931000819310008D3
:1001900010B5054C237833B9044B13B10448AFF3C1
:1001A00000800123237010BDE80100200000000042
:1001B0009458000808B5034B1BB103490348AFF33B
:1001C000008008BD00000000EC01002094580008E9
:1001D00081F0004102E000BF83F0004330B54FEAF8
:1001E00041044FEA430594EA050F08BF90EA020F65
:1001F0001FBF54EA000C55EA020C7FEA645C7FEAF8
:10020000655C00F0E2804FEA5454D4EB5555B8BF1A
:100210006D420CDD2C4480EA020281EA030382EA8B
:10022000000083EA010180EA020281EA0303362D1D
:1002300088BF30BD11F0004F4FEA01314FF4801CF0
:100240004CEA113102D0404261EB410113F0004F02
:100250004FEA03334CEA133302D0524263EB4303B9
:1002600094EA050F00F0A780A4F10104D5F1200E57
:100270000DDB02FA0EFC22FA05F2801841F10001B2
:1002800003FA0EF2801843FA05F359410EE0A5F186
:1002900020050EF1200E012A03FA0EFC28BF4CF0B7
:1002A000020C43FA05F3C01851EBE37101F000456D
:1002B00007D54FF0000EDCF1000C7EEB00006EEB7A
:1002C0000101B1F5801F1BD3B1F5001F0CD3490804
:1002D0005FEA30004FEA3C0C04F101044FEA44525B
:1002E00012F5800F80F09A80BCF1004F08BF5FEAE2
:1002F000500C50F1000041EB045141EA050130BDC2
:100300005FEA4C0C404141EB010111F4801FA4F164
:100310000104E9D191F0000F04BF01460020B1FAB9
:1003200081F308BF2033A3F10B03B3F120020CDAF1
:100330000C3208DD02F1140CC2F10C0201FA0CF0CF
:1003400021FA02F10CE002F11402D8BFC2F1200C34
:1003500001FA02F120FA0CFCDCBF41EA0C019040EA
:10036000E41AA2BF01EB0451294330BD6FEA040433
:100370001F3C1CDA0C340EDC04F11404C4F120021E
:1003800020FA04F001FA02F340EA030021FA04F330
:1003900045EA030130BDC4F10C04C4F1200220FA87
:1003A00002F001FA04F340EA0300294630BD21FAC5
:1003B00004F0294630BD94F0000F83F4801306BF8B
:1003C00081F480110134013D4EE77FEA645C18BF7F
:1003D0007FEA655C29D094EA050F08BF90EA020F16
:1003E00005D054EA000C04BF1946104630BD91EA0E
:1003F000030F1EBF0021002030BD5FEA545C05D111
:100400004000494128BF41F0004130BD14F580044F
:100410003CBF01F5801130BD01F0004545F0FE41C3
:1004200041F470014FF0000030BD7FEA645C1ABFF8
:10043000194610467FEA655C1CBF0B46024650EA2F
:10044000013406BF52EA033591EA030F41F400215B
:1004500030BD00BF90F0000F04BF0021704730B5E1
:100460004FF4806404F132044FF000054FF00001B6
:1004700050E700BF90F0000F04BF0021704730B577
:100480004FF4806404F1320410F0004548BF40424C
:100490004FF000013EE700BF42004FEAE2014FEAA1
:1004A00031014FEA02701FBF12F07F4393F07F4F7C
:1004B00081F06051704732F07F4208BF704793F07F
:1004C0007F4F04BF41F40021704730B54FF4607492
:1004D00001F0004521F000411CE700BF50EA010295
:1004E00008BF704730B54FF000050AE050EA01023E
:1004F00008BF704730B511F0004502D5404261EBAE
:1005000041014FF4806404F132045FEA915C3FF4EE
:10051000D8AE4FF003025FEADC0C18BF03325FEA8B
:10052000DC0C18BF033202EBDC02C2F1200300FA3C
:1005300003FC20FA02F001FA03FE40EA0E0021FA61
:1005400002F11444BDE600BF53B94AB9002908BFFF
:1005500000281CBF4FF0FF314FF0FF3000F072B9A0
:10056000ADF1080C6DE904CE00F006F8DDF804E00A
:10057000DDE9022304B070472DE9F047089E0446E8
:100580008846002B4BD18A42154667D9B2FA82F2CF
:100590004AB1C2F1200701FA02F320FA07F79540A9
:1005A00047EA030894404FEA154E230CB8FBFEF7C8
:1005B0001FFA85FC0EFB178843EA084307FB0CF182
:1005C000994209D9EB1807F1FF3080F01B8199425D
:1005D00040F21881023F2B445B1AA4B2B3FBFEF039
:1005E0000EFB103344EA034400FB0CFCA44509D97C
:1005F0002C1900F1FF3380F00781A44540F20481FB
:1006000002382C4440EA0740A4EB0C0400271EB13A
:10061000D4400023C6E900433946BDE8F0878B4249
:1006200009D9002E00F0EB800027C6E9000138460A
:100630003946BDE8F087B3FA83F7002F47D18B42E4
:1006400002D3824200F2FA80841A61EB0303012094
:100650009846002EE0D0C6E90048DDE702B9FFDE8B
:10066000B2FA82F2002A40F08F80491B4FEA154E01
:100670001FFA85F80127B1FBFEFC230C0EFB1C11B1
:1006800043EA014308FB0CF1994207D9EB180CF13E
:10069000FF3002D2994200F2CD808446591AA3B2AB
:1006A000B1FBFEF00EFB101443EA044408FB00F813
:1006B000A04507D92C1900F1FF3302D2A04500F262
:1006C000B6801846A4EB080440EA0C409FE7C7F147
:1006D000200CBB4022FA0CFE4EEA030E01FA07F48E
:1006E00020FA0CF521FA0CF34FEA1E482543B3FB20
:1006F000F8F92C0C08FB19331FFA8EFA44EA03436D
:1007000009FB0AF49C4202FA07F200FA07F10BD93E
:100710001EEB030309F1FF3080F087809C4240F21A
:100720008480A9F1020973441B1BADB2B3FBF8F03E
:1007300008FB103345EA034400FB0AFAA24508D936
:100740001EEB040400F1FF336BD2A24569D90238D5
:10075000744440EA0940A0FB0289A4EB0A044C451A
:10076000C2464B4654D351D0002E69D0B1EB0A0596
:1007700064EB030404FA0CFCFD40FC404CEA050564
:10078000C6E90054002747E7C2F1200320FA03F727
:10079000954001FA02F021FA03F34FEA154E38436F
:1007A000010CB3FBFEF71FFA85F80EFB173341EA85
:1007B000034107FB08F38B4204FA02F407D96918D6
:1007C00007F1FF3C2FD28B422DD9023F2944CB1A8F
:1007D00081B2B3FBFEF00EFB103341EA034100FB94
:1007E00008F38B4207D9691800F1FF3C17D28B42FE
:1007F00015D902382944C91A40EA07473BE737466A
:10080000304609E70746E7E61846FBE64145ABD226
:10081000B8EB020A69EB0E0201381346A4E7604602
:10082000E9E7184695E76746D1E781467CE7023855
:100830002C4447E7ACF1020C2B442FE7384608E77D
:100840003746E9E6704700BF034613F8012B002A3C
:10085000FBD1181A013870470000000000000000AA
:1008600001F0FF01102A2BDB10F0070F08D010F861
:10087000013B013A8B422DD010F0070F42B3F6D165
:10088000F0B441EA012141EA014122F007047FF07E
:1008900000070023F0E80256083C85EA010586EAD5
:1008A000010685FA47F5A3FA87F586FA47F6A5FA11
:1008B00087F68EB9EED1F0BC01F0FF0102F007021D
:1008C00032B110F8013B013A83EA010313B1F8D1C8
:1008D0000020704701387047002D06BF35460338A9
:1008E000073815F0010F07D1013015F4807F02BFE2
:1008F000013015F4C03F0130F0BC0138704700BF33
:1009000070B54FF0FF0C4CF4E06C1CEA11541DBFA5
:100910001CEA135594EA0C0F95EA0C0F00F0DEF870
:100920002C4481EA030621EA4C5123EA4C5350EA55
:10093000013518BF52EA033541F4801143F48013A6
:1009400038D0A0FB02CE4FF00005E1FB02E506F037
:100950000042E0FB03E54FF00006E1FB03569CF08C
:10096000000F18BF4EF0010EA4F1FF04B6F5007F92
:1009700064F5407404D25FEA4E0E6D4146EB060604
:1009800042EAC62141EA55514FEAC52040EA5E508D
:100990004FEACE2EB4F1FD0C88BFBCF5E06F1ED837
:1009A000BEF1004F08BF5FEA500E50F1000041EB6E
:1009B000045170BD06F0004646EA010140EA02001B
:1009C00081EA0301B4EB5C04C2BFD4EB0C0541EA3D
:1009D000045170BD41F480114FF0000E013C00F352
:1009E000AB8014F1360FDEBF002001F0004170BD76
:1009F000C4F10004203C35DA0C341BDC04F114048F
:100A0000C4F1200500FA05F320FA04F001FA05F21A
:100A100040EA020001F0004221F0004110EBD370E7
:100A200021FA04F642EB06015EEA430E08BF20EA13
:100A3000D37070BDC4F10C04C4F1200500FA04F3B6
:100A400020FA05F001FA04F240EA020001F0004148
:100A500010EBD37041F100015EEA430E08BF20EABB
:100A6000D37070BDC4F1200500FA05F24EEA020E03
:100A700020FA04F301FA05F243EA020321FA04F032
:100A800001F0004121FA04F220EA020000EBD370E9
:100A90005EEA430E08BF20EAD37070BD94F0000FE9
:100AA0000FD101F00046400041EB010111F4801F1D
:100AB00008BF013CF7D041EA060195F0000F18BFCE
:100AC000704703F00046520043EB030313F4801F0A
:100AD00008BF013DF7D043EA0603704794EA0C0FC4
:100AE0000CEA135518BF95EA0C0F0CD050EA4106DA
:100AF00018BF52EA4306D1D181EA030101F0004157
:100B00004FF0000070BD50EA410606BF104619467E
:100B100052EA430619D094EA0C0F02D150EA01368A
:100B200013D195EA0C0F05D152EA03361CBF1046CB
:100B300019460AD181EA030101F0004141F0FE416A
:100B400041F470014FF0000070BD41F0FE4141F4EE
:100B5000780170BD70B54FF0FF0C4CF4E06C1CEAEE
:100B600011541DBF1CEA135594EA0C0F95EA0C0FA3
:100B700000F0A7F8A4EB050481EA030E52EA03355E
:100B80004FEA013100F088804FEA03334FF080557F
:100B900045EA131343EA12634FEA022245EA1115AC
:100BA00045EA10654FEA00260EF000419D4208BF5D
:100BB000964244F1FD0404F5407402D25B084FEA0A
:100BC0003202B61A65EB03055B084FEA32024FF4B6
:100BD00080104FF4002CB6EB020E75EB030E22BF13
:100BE000B61A754640EA0C005B084FEA3202B6EBD3
:100BF000020E75EB030E22BFB61A754640EA5C0082
:100C00005B084FEA3202B6EB020E75EB030E22BF11
:100C1000B61A754640EA9C005B084FEA3202B6EB12
:100C2000020E75EB030E22BFB61A754640EADC00D1
:100C300055EA060E18D04FEA051545EA16754FEA33
:100C400006164FEAC30343EA52734FEAC2025FEA51
:100C50001C1CC0D111F4801F0BD141EA00014FF0E0
:100C600000004FF0004CB6E711F4801F04BF0143B1
:100C70000020B4F1FD0C88BFBCF5E06F3FF6AFAECD
:100C8000B5EB030C04BFB6EB020C5FEA500C50F15D
:100C9000000041EB045170BD0EF0004E4EEA1131E0
:100CA00014EB5C04C2BFD4EB0C0541EA045170BDE7
:100CB00041F480114FF0000E013C90E645EA060E2B
:100CC0008DE60CEA135594EA0C0F08BF95EA0C0F59
:100CD0003FF43BAF94EA0C0F0AD150EA01347FF4A1
:100CE00034AF95EA0C0F7FF425AF104619462CE778
:100CF00095EA0C0F06D152EA03353FF4FDAE1046DB
:100D0000194622E750EA410618BF52EA43067FF42B
:100D1000C5AE50EA41047FF40DAF52EA43057FF4BB
:100D2000EBAE12E74FF0FF3C06E000BF4FF0010CC6
:100D300002E000BF4FF0010C4DF804CD4FEA410C2A
:100D40007FEA6C5C4FEA430C18BF7FEA6C5C1BD0F7
:100D500001B050EA410C0CBF52EA430C91EA030F78
:100D600002BF90EA020F0020704710F1000F91EAD5
:100D7000030F58BF994208BF90422CBFD8176FEAA3
:100D8000E37040F0010070474FEA410C7FEA6C5C71
:100D900002D150EA013C07D14FEA430C7FEA6C5C78
:100DA000D6D152EA033CD3D05DF8040B704700BFA4
:100DB0008446104662468C461946634600E000BFF2
:100DC00001B5FFF7B7FF002848BF10F1000F01BDC4
:100DD0004DF808EDFFF7F4FF0CBF012000205DF88F
:100DE00008FB00BF4DF808EDFFF7EAFF34BF012014
:100DF00000205DF808FB00BF4DF808EDFFF7E0FFAD
:100E000094BF012000205DF808FB00BF4DF808EDFD
:100E1000FFF7CEFF94BF012000205DF808FB00BF64
:100E20004DF808EDFFF7C4FF34BF012000205DF846
:100E300008FB00BF4FEA410C7FEA6C5C02D150EA2C
:100E4000013C0AD14FEA430C7FEA6C5C02D152EAC2
:100E5000033C02D14FF0000070474FF00100704793
:100E60004FEA410212F5001215D211D56FF47873D2
:100E7000B3EB625212D94FEAC12343F0004343EA75
:100E8000505311F0004F23FA02F018BF4042704750
:100E90004FF00000704750EA013005D111F00040DA
:100EA00008BF6FF0004070474FF00000704700BF70
:100EB00010B504460E4B18784FF47A73B3FBF0F379
:100EC0000C4A1068B0FBF3F000F0A8F868B90F2CDA
:100ED00001D901200AE0002221464FF0FF3000F046
:100EE0005DF8034B5C60002000E0012010BD00BFF6
:100EF000000000201400002008B50B4B1A6842F4D3
:100F000000721A601A6842F480621A601A6842F429
:100F100080721A60032000F02FF80020FFF7C8FF4E
:100F200001F0D6FF002008BD003C0240034A1168D2
:100F3000034B1B780B441360704700BF2002002056
:100F400000000020014B1868704700BF20020020FD
:100F500038B50446FFF7F6FF0546B4F1FF3F02D06F
:100F6000044B1B781C44FFF7EDFF401BA042FAD353
:100F700038BD00BF00000020074AD36823F4E063B7
:100F80001B041B0C000200F4E060184340F0BF603B
:100F900040F40030D060704700ED00E030B4174BF3
:100FA000DB68C3F30223C3F10704042C28BF042425
:100FB0001D1D062D18D9033B4FF0FF3505FA04F42B
:100FC00021EA0401994005FA03F322EA03031943D5
:100FD00000280BDB0901C9B200F1604000F5614057
:100FE00080F8001330BC70470023E5E700F00F00E5
:100FF0000901C9B2024B1954F4E700BF00ED00E04B
:1010000014ED00E000F01F02400901239340024A62
:1010100042F82030704700BF00E100E00138B0F135
:10102000807F0AD2064B5860064AF02182F82310CE
:101030000020986007221A6070470120704700BFA7
:1010400010E000E000ED00E00268D3B2103B0B4975
:10105000A1FB03131B090A49C95CC165032B06D810
:1010600022F47F7222F003028265806D704722F4C1
:101070007F7222F0030204328265F6E7ABAAAAAAC5
:10108000B0580008836A826992B9012B0AD01BB15B
:10109000022B01D000207047C36A13F0807F2CD14F
:1010A00000207047C36AB3F1C07F28D0002070478A
:1010B000B2F5005F05D0022B29D9032B15D00020F3
:1010C0007047032B03D8DFE803F01C041C0A002040
:1010D0007047C36A13F0807F15D100207047C36A40
:1010E000B3F1C07F11D000207047C36A13F0807F36
:1010F00001D0012070470020704701207047012077
:10110000704701207047012070470120704701207F
:101110007047000070B50446FFF714FF002C5BD049
:101120000546002384F83430022384F835302268E1
:10113000136823F00103136023681A6812F0010F8B
:101140000AD0FFF7FFFE401B0528F5D92023636571
:10115000032084F8350070BD1A682048104061688B
:10116000A2680A43E1680A4321690A4361690A43A4
:10117000A1690A43E1690A43216A0A430243616A99
:1011800004291ED01A602668756925F00705636A70
:101190001D43042B07D1A36A1D43E36A1BB12046FC
:1011A000FFF770FF90B975612046FFF74DFFE26DC4
:1011B0003F239340836000206065012384F835302D
:1011C000C9E7E16A206B01430A43DBE7402363651B
:1011D000012084F83500BEE70120BCE73F8010F015
:1011E000F0B583B0044600230193724B1D68724B27
:1011F000A3FB0535AD0A876D3E68C26D0823934099
:10120000334210D003681A6812F0040F0BD01A682A
:1012100022F004021A60C26D08239340BB60436D44
:1012200043F001034365E26D01239340334209D04B
:101230002268526912F0800F04D0BB60636D43F0E6
:1012400002036365E26D04239340334209D02268B0
:10125000126812F0020F04D0BB60636D43F0040308
:101260006365E26D10239340334224D022681268F4
:1012700012F0080F1FD0BB6023681A6812F4802F89
:101280000DD01B6813F4002F04D1236C9BB12046B2
:10129000984710E0A36C73B1204698470BE01A689A
:1012A00012F4807F03D11A6822F008021A60236CBE
:1012B0000BB120469847E26D20239340334255D02E
:1012C0002268126812F0100F50D0BB6094F83530CD
:1012D000DBB2052B0ED023681A6812F4802F33D0AE
:1012E0001B6813F4002F2AD1636C002B3ED02046DC
:1012F00098473BE02268136823F0160313602268C6
:10130000536923F080035361236CA3B122681368EF
:1013100023F008031360E26D3F239340BB6000237A
:1013200084F83430012384F83530236D002B3FD00E
:10133000204698473CE0A36C002BE7D1EBE7E36B3A
:10134000A3B12046984711E01A6812F4807F09D1B2
:101350001A6822F010021A60002384F83430012346
:1013600084F83530E36B0BB120469847636DFBB1D1
:10137000636D13F0010F17D0052384F83530226810
:10138000136823F001031360019B01330193AB4207
:1013900004D823681B6813F0010FF5D1002384F8EB
:1013A0003430012384F83530E36C0BB12046984784
:1013B00003B0F0BD14000020B5814E1B00230F2B9D
:1013C00000F2D780F0B482B039E0072200E00022BA
:1013D000B2403A430234674E46F82420664A146805
:1013E000EA4302EA04064F6817F4803F01D045EA59
:1013F0000406614C2660646802EA04064F6817F42C
:10140000003F01D045EA04065B4C6660A46802EA2E
:1014100004064F6817F4801F01D045EA0406564CB5
:10142000A660E46822404E6816F4001F01D045EA29
:101430000402514CE26001330F2B00F2978001222D
:101440009A400C6804EA0205AA42F4D14C68022CC6
:1014500001D0122C10D1DE08083650F826C003F057
:101460000704A7000F24BC402CEA040C0C69BC4004
:1014700044EA0C0440F8264004685F000326BE409E
:10148000F64306EA040C4C6804F00304BC4044EA4A
:101490000C0404604C6804F1FF3CBCF1010F03D95B
:1014A000112C01D0122C10D1846806EA040CCC68EF
:1014B000BC4044EA0C048460446824EA02024C689C
:1014C000C4F300149C4014434460C26816408A6808
:1014D000BA403243C2604A6812F0805FABD000224B
:1014E0000192264A546C44F480445464526C02F4D1
:1014F00080420192019A9C08A61C1E4A52F826704E
:1015000003F0030296000F22B24027EA02071C4AAA
:1015100090423FF45CAF02F5806290421AD002F52F
:101520008062904218D002F58062904216D002F597
:101530008062904214D002F58062904212D002F58F
:101540008062904210D002F5806290423FF43DAF3D
:1015500008223DE701223BE7022239E7032237E771
:10156000042235E7052233E7062231E702B0F0BC5A
:101570007047704700380140003C0140003802408D
:101580000000024003685A6912F4806F0DD06FF4B6
:1015900080625A610423036400230363202280F8DD
:1015A0003D2080F83C300120704700207047F8B59E
:1015B00006460C4617461D461EE02DB1FFF7C2FC3D
:1015C000069BC01AA84217D900233363202286F84D
:1015D0003D2086F83E3086F83C3003201AE0336820
:1015E0005B6924EA03039BB2B3FA83F35B099F426E
:1015F0000FD1B5F1FF3FE0D1C4F30743012BEED08B
:1016000033689B6924EA03039BB2B3FA83F35B0953
:10161000EDE70020F8BDF8B504460D4616461F4616
:1016200032E01A6842F400721A6023686FF4806234
:101630005A610423236400232363202284F83D207D
:1016400084F83C3001202DE026B1FFF77BFCC01B65
:10165000B04219D900232363202284F83D2084F866
:101660003C3003201EE023685B6925EA03039BB23C
:10167000003318BF0123A3B123685A6912F4806FA5
:10168000CFD1B6F1FF3FDFD1C5F30743012BEAD03D
:1016900023689B6925EA03039BB2003318BF01232B
:1016A000E9E70020F8BD0000F0B583B004460D4620
:1016B00016461F46C36A042B0DD0012B0BD013F521
:1016C000803F08D0036B122B0AD10268136843F4E1
:1016D0008073136004E02268136843F4807313601E
:1016E0000097334600224FF001112046FFF75FFFBD
:1016F00058BB2369B3F5804F10D1236805F0FE0570
:101700001D613B46324615492046FFF784FF0346DC
:10171000E0B1236C042B1ED1012317E0EB112268EA
:1017200003F0060343F0F00313613B4632460C49D5
:101730002046FFF770FF20B1236C042B09D1012351
:1017400004E02368EDB21D61DBE70323184603B014
:10175000F0BD0323FAE70323F8E700BF020001000E
:101760000800010070B504460D46164623685B6903
:1017700013F0800F19D12046FFF704FFB8B9B5F177
:10178000FF3FF3D025B1FFF7DDFB801BA842EDD969
:10179000236C43F02003236400232363202284F876
:1017A0003D2084F83C30032000E0002070BD012083
:1017B000FCE700002DE9F04184B004460E461746D0
:1017C00098460B9D0268136843F4806313600268B7
:1017D000136843F48073136000950A9B00224FF056
:1017E0000111FFF7E4FE002874D1F6B2236806F079
:1017F000FE021A612B460A9A3F492046FFF70BFF6B
:1018000020B1236C042B6AD1012364E000230393ED
:1018100023685A6903929B690393039B2A460A999A
:101820002046FFF79FFF48B1236C042B59D1226853
:10183000136843F40073136001234CE0B8F1010F07
:1018400012D12368FFB21F612A460A992046FFF78A
:1018500089FF00B3236C042B47D12268136843F43B
:1018600000731360012336E023683A0A1A612A469E
:101870000A992046FFF776FF48B1236C042B32D13A
:101880002268136843F400731360012323E0236884
:10189000FFB21F61D8E72268136843F480731360B6
:1018A00000950A9B00224FF001112046FFF77FFEB2
:1018B000E8B9236846F001061E612B460A9A0E49D4
:1018C0002046FFF7A8FE034628B1236C042B10D155
:1018D000012300E00323184604B0BDE8F081032390
:1018E000F9E70323F7E70323F5E70323F3E70323EC
:1018F000F1E70323EFE700BF0200010070B50446E3
:101900000D46164623685B6913F0040F19D1204673
:10191000FFF738FEB8B9B5F1FF3FF3D025B1FFF7B7
:1019200011FB801BA842EDD9236C43F020032364F4
:1019300000232363202284F83D2084F83C300320D8
:1019400000E0002070BD0120FCE770B505460C46A4
:1019500016462B685A6912F0400F22D15A6912F0CC
:10196000100F11D124B1FFF7EDFA801BA042F0D97E
:101970002B6C43F020032B64202385F83D3000239B
:1019800085F83C30032070BD6FF010025A610023CF
:101990002B642B63202285F83D2085F83C30012004
:1019A000F1E70020EFE70000002800F0828010B58A
:1019B000044690F83D30002B41D0242384F83D307C
:1019C0002268136823F00103136000F09BFD3A4B7B
:1019D000A3FB00239B0C226853606168374A914245
:1019E00032D80133226813626368344A934235D88F
:1019F0005B00B0FBF3F0C0F30B03032B00D8042013
:101A00002368D861E369216A22680B431360236964
:101A1000E16822680B4393606369A16922680B4304
:101A2000D3602268136843F0010313600020206430
:101A3000202384F83D30206384F83E0010BD80F8F8
:101A40003C3001F007F9B8E74FF4967202FB03F35C
:101A50001B4AA2FB03239B090133C3E7A16889B991
:101A600003EB4302B0FBF2F2C2F30B02B2FA82F2D2
:101A70005209E2B991B903EB4303B0FBF3F040F430
:101A80000040BDE703EB830202EB8202B0FBF2F2FF
:101A9000C2F30B02B2FA82F25209EAE703EB8303C4
:101AA00003EB8303B0FBF3F040F44040A8E70120D0
:101AB000A6E70120704700BF83DE1B43A08601001C
:101AC000D34D62102DE9F04184B004460E46904695
:101AD0001F46FFF737FA94F83D30DBB2202B04D0D5
:101AE0000226304604B0BDE8F08105460090192377
:101AF000012254492046FFF75AFD002840F0998002
:101B000094F83C30012B00F09680012384F83C309F
:101B100023681A6812F0010F03D11A6842F001021B
:101B20001A602268136823F400631360212384F889
:101B30003D30102384F83E3000232364C4F8248011
:101B40006785A3F58033E362638D23852B460A9A6C
:101B500031462046FFF7A8FD064660B1236C042BF2
:101B600004D1002384F83C300126BAE7002384F82E
:101B70003C300326B5E70023039323685A69039298
:101B80009B690393039B10E0236C042B55D12268BF
:101B9000136843F4007313600126A2E72A460A99EA
:101BA0002046FFF7ABFE00282BD1238D002B32D02F
:101BB0002A460A992046FFF7D5FD0028E4D1636A3A
:101BC0005A1C626222681B781361638D013B9BB2D1
:101BD0006385238D013B9BB223852268516911F0F7
:101BE000040FDBD0002BD9D0636A591C61621B78CB
:101BF0001361638D013B9BB26385238D013B23857C
:101C0000CCE7236C042B1AD12268136843F40073C9
:101C10001360012665E72268136843F400731360BC
:101C2000202384F83D30002384F83E3084F83C3093
:101C300057E7022655E7022653E7032651E7032616
:101C40004FE700BF020010002DE9F04186B00446C6
:101C50000E4617469846FFF775F994F83D30DBB20B
:101C6000202B04D00226304606B0BDE8F0810546A0
:101C70000090192301228B492046FFF798FC002889
:101C800040F04B8194F83C30012B00F04881012357
:101C900084F83C3023681A6812F0010F03D11A68E7
:101CA00042F001021A602268136823F40063136093
:101CB000222384F83D30402384F83E3000232364FF
:101CC0000C9B6362BDF834306385774BE362638DB0
:101CD000238501950E9B009343463A4631462046A4
:101CE000FFF768FD064660B1236C042B04D1002386
:101CF00084F83C300126B6E7002384F83C30032604
:101D0000B1E7238D5BB9029323685A6902929A69FD
:101D10000292029A1A6842F400721A6075E0012B6E
:101D20000AD0022B1AD00023059323685A69059222
:101D30009B690593059B68E02268136823F4806320
:101D400013600023039323685A6903929A690392EC
:101D5000039A1A6842F400721A6056E02268136807
:101D600023F4806313602268136843F400631360F4
:101D70000023049323685A6904929B690493049B8B
:101D800043E02A460E992046FFF7DFFD68B9236835
:101D90001A69636A591C61621A70238D013B23859D
:101DA000638D013B9BB263852FE0236C202B01D018
:101DB000012658E7032656E700950E9B00223B4973
:101DC0002046FFF7F4FB002840F0AB802268136840
:101DD00043F40073136023681A69636A591C6162D3
:101DE0001A70238D013B2385638D013B9BB2638574
:101DF00023681A69636A591C61621A70238D013B5A
:101E00002385638D013B9BB26385238D002B7BD0A3
:101E1000032B4DD8012BB4D0022BCDD000950E9BB7
:101E2000002222492046FFF7C2FB00287BD122680E
:101E3000136823F48063136023681A69636A591C6A
:101E400061621A70238D013B2385638D013B9BB238
:101E5000638500950E9B002214492046FFF7A7FBDF
:101E6000002862D12268136843F40073136023686A
:101E70001A69636A591C61621A70238D013B2385BC
:101E8000638D013B9BB2638523681A69636A591CA1
:101E900061621A70238D013B2385638D013B9BB2E8
:101EA0006385B2E7020010000000FFFF040001009C
:101EB0002A460E992046FFF748FDF0B923681A69B3
:101EC000636A591C61621A70238D013B2385638DFF
:101ED000013B9BB2638523685A6912F0040F94D0CA
:101EE0001A69636A591C61621A70238D013B23854C
:101EF000638D013B9BB2638587E7236C202B01D068
:101F00000126B0E60326AEE6202384F83D30002308
:101F100084F83E3084F83C30A5E60226A3E602268B
:101F2000A1E603269FE603269DE603269BE600BF67
:101F3000002800F0BB8170B582B00446036813F03E
:101F4000010F3BD0A74B9B6803F00C03042B2CD054
:101F5000A44B9B6803F00C03082B21D06368B3F5F6
:101F6000803F4FD0B3F5A02F52D09E4B1A6822F479
:101F700080321A601A6822F480221A606368002B8B
:101F800050D0FEF7DFFF0546964B1B6813F4003F69
:101F900014D1FEF7D7FF401B6428F5D903208AE14E
:101FA000904B5B6813F4800FD8D08E4B1B6813F4F2
:101FB000003F03D06368002B00F07A81236813F0A0
:101FC000020F55D0874B9B6813F00C0F3ED0854B0A
:101FD0009B6803F00C03082B33D0E368002B68D018
:101FE000814B01221A60FEF7ADFF05467D4B1B6851
:101FF00013F0020F54D1FEF7A5FF401B0228F5D9BC
:10200000032058E1774A136843F480331360B5E73F
:10201000744B1A6842F480221A601A6842F48032C3
:102020001A60ABE7FEF78EFF05466E4B1B6813F494
:10203000003FC3D0FEF786FF401B6428F5D903207C
:1020400039E1684B5B6813F4800FC6D1654B1B68A0
:1020500013F0020F04D0E368012B01D001202AE124
:10206000604A136823F0F803216943EAC10313604F
:10207000236813F0080F40D0636963B35B4B012200
:102080001A60FEF75FFF0546564B5B6F13F0020FB9
:1020900033D1FEF757FF401B0228F5D903200AE190
:1020A000504A136823F0F803216943EAC10313601F
:1020B000DEE74D4B00221A60FEF744FF0546494B10
:1020C0001B6813F0020FD3D0FEF73CFF401B022821
:1020D000F5D90320EFE0454B00221A60FEF732FFEE
:1020E0000546404B5B6F13F0020F06D0FEF72AFF48
:1020F000401B0228F5D90320DDE0236813F0040F0C
:1021000079D0384B1B6C13F0805F33D100230193DF
:10211000344B1A6C42F080521A641B6C03F08053EB
:102120000193019B0125324B1B6813F4807F23D060
:10213000A368012B34D0052B38D02A4B1A6F22F01C
:1021400001021A671A6F22F004021A67A368002BB3
:1021500036D0FEF7F7FE0646224B1B6F13F0020F38
:1021600048D1FEF7EFFE801B41F288339842F3D945
:102170000320A0E00025D6E71D4A136843F48073CE
:102180001360FEF7DFFE0646194B1B6813F4807FD1
:10219000CED1FEF7D7FE801B0228F5D903208AE0B6
:1021A000104A136F43F001031367CFE70D4B1A6F0B
:1021B00042F004021A671A6F42F001021A67C5E77B
:1021C000FEF7C0FE0646074B1B6F13F0020F11D03F
:1021D000FEF7B8FE801B41F288339842F3D9032002
:1021E00069E000BF0038024000004742800E4742CD
:1021F00000700040E5B9A369002B5BD0304A9268BB
:1022000002F00C02082A58D0022B17D02D4B0022C6
:102210001A60FEF797FE0446294B1B6813F0007FF7
:1022200042D0FEF78FFE001B0228F5D9032042E0C2
:10223000234A136C23F080531364DCE7214B002204
:102240001A60FEF77FFE05461D4B1B6813F0007FEA
:1022500006D0FEF777FE401B0228F5D903202AE0BE
:10226000E369226A1343626A43EA8213A26A52084C
:10227000013A43EA0243E26A43EA0263104A5360C6
:10228000104B01221A60FEF75DFE04460C4B1B68E2
:1022900013F0007F06D1FEF755FE001B0228F5D98A
:1022A000032008E0002006E0002004E00120704741
:1022B000012000E0002002B070BD0120FBE700BF5C
:1022C0000038024060004742324B9B6803F00C0329
:1022D000042B5CD0082B01D02F4870472DE9F04B20
:1022E0002C4B5A6802F03F025B6813F4800F2BD02E
:1022F000284B5B68C3F388131E4600275C0100254A
:10230000E41A65EB0705A90141EA9461A001001BED
:1023100061EB0501CB0043EA5073C400A01943EB05
:1023200007014B0243EAD0534402204619460023DA
:10233000FEF70AF9174B5B68C3F3014301335B00F7
:10234000B0FBF3F0BDE8F08B124B5B68C3F388136E
:102350001E4600275C010025E41A65EB0705A9016C
:1023600041EA9461A001001B61EB0501CB0043EA47
:102370005073C400A01943EB07018B0243EA90534A
:102380008402204619460023FEF7DEF8D2E7034810
:10239000704700BF003802400024F40000127A00A9
:1023A000002800F09D8070B504464F4B1B6803F079
:1023B0000F038B4209D2CBB24B4A1370136803F060
:1023C0000F038B4201D0012070BD236813F0020F70
:1023D00017D013F0040F04D0444A936843F4E05339
:1023E0009360236813F0080F04D0404A936843F4C5
:1023F000604393603D4A936823F0F003A068034371
:1024000093600D46236813F0010F32D06368012BEF
:1024100021D09A1E012A25D9344A126812F0020FDF
:1024200060D032498A6822F0030213438B60FEF7C2
:1024300089FD06462D4B9B6803F00C036268B3EBE5
:10244000820F16D0FEF77EFD801B41F28833984242
:10245000F0D90320B8E7254A126812F4003FE0D112
:102460000120B1E7214A126812F0007FD9D1012082
:10247000AAE71D4B1B6803F00F03AB4209D9EAB270
:10248000194B1A701B6803F00F03AB4201D00120F7
:102490009AE7236813F0040F06D0144A936823F4D4
:1024A000E053E1680B439360236813F0080F07D0F3
:1024B0000E4A936823F46043216943EAC1039360A1
:1024C000FFF702FF094B9B68C3F30313084AD35C71
:1024D000D840084B18600020FEF7EAFC002073E7A4
:1024E0000120704701206FE7003C024000380240A5
:1024F000CC58000814000020014B1868704700BF3A
:102500001400002008B5FFF7F7FF044B9B68C3F3E6
:102510008223034AD35CD84008BD00BF0038024084
:10252000DC58000808B5FFF7E7FF044B9B68C3F3CE
:102530004233034AD35CD84008BD00BF0038024094
:10254000DC5800082DE9F843044601680A6922F4C2
:102550004052C36813430B610168CA6822F41642F3
:1025600022F00C0283680069034360690343E06959
:1025700003431343CB6021684A6922F44072A36984
:1025800013434B61E369B3F5004F60D02368B84A49
:10259000934200F0148102F58062934200F00F81B3
:1025A000FFF7B0FF00EB800000EB80006568AD0036
:1025B000B0FBF5F5AF4FA7FB05356D092E01FFF711
:1025C000A1FF00EB800000EB80006568AD00B0FB70
:1025D000F5F9FFF797FF00EB800000EB80006568DE
:1025E000AD00B0FBF5F5A7FB05356D094FF06408AC
:1025F00008FB15952D013235A7FB05356D0905F052
:10260000F0053544FFF77EFF00EB800000EB800013
:102610006668B600B0FBF6F6FFF774FF00EB8000CB
:1026200000EB800063689B00B0FBF3F0A7FB003079
:10263000400908FB10684FEA081808F13208A7FBA8
:102640000837C7F3431723682F449F600DE12368C1
:10265000874A93425BD002F58062934257D0FFF7DE
:1026600051FF00EB800000EB800065686D00B0FB5F
:10267000F5F5804FA7FB05356D092E01FFF742FFE9
:1026800000EB800000EB800065686D00B0FBF5F9A1
:10269000FFF738FF00EB800000EB800065686D00FD
:1026A000B0FBF5F5A7FB05356D094FF0640808FB95
:1026B0001595ED003235A7FB05356D096D0005F464
:1026C000F8753544FFF71EFF00EB800000EB80003B
:1026D00066687600B0FBF6F6FFF714FF00EB8000AB
:1026E00000EB800063685B00B0FBF3F3A7FB032300
:1026F0005B0908FB13684FEAC80808F13208A7FB1A
:102700000837C7F3421723682F449F60ADE0FFF7F7
:1027100009FF00EB800000EB800065686D00B0FBF6
:10272000F5F5544FA7FB05356D092E01FFF7FAFEAD
:1027300000EB800000EB800065686D00B0FBF5F9F0
:10274000FFF7F0FE00EB800000EB800065686D0095
:10275000B0FBF5F5A7FB05356D094FF0640808FBE4
:102760001595ED003235A7FB05356D096D0005F4B3
:10277000F8753544FFF7D6FE00EB800000EB8000D3
:1027800066687600B0FBF6F6FFF7CCFE00EB800043
:1027900000EB800063685B00B0FBF3F3A7FB03234F
:1027A0005B0908FB13684FEAC80808F13208A7FB69
:1027B0000837C7F3421723682F449F6055E0FFF79F
:1027C000B1FE00EB800000EB80006568AD00B0FB5F
:1027D000F5F5284FA7FB05356D092E01FFF7A2FE81
:1027E00000EB800000EB80006568AD00B0FBF5F900
:1027F000FFF798FE00EB800000EB80006568AD00FD
:10280000B0FBF5F5A7FB05356D094FF0640808FB33
:1028100015952D013235A7FB05356D0905F0F0053D
:102820003544FFF77FFE00EB800000EB8000666818
:10283000B600B0FBF6F6FFF775FE00EB800000EB8C
:10284000800063689B00B0FBF3F0A7FB00304009F9
:1028500008FB10684FEA081808F13208A7FB083790
:10286000C7F3431723682F449F60BDE8F88300BF78
:10287000001001401F85EB512DE9F04105460F4640
:1028800016469846069C2B681B6837EA03030CBF64
:1028900001230023B3421DD1B4F1FF3FF3D02CB18B
:1028A000FEF750FBA0EB0800A042ECD92A68D368E1
:1028B00023F4D073D3602A68536923F00103536172
:1028C000202385F8393085F83A30002385F83830F0
:1028D000032000E00020BDE8F08158B310B50446A5
:1028E00090F839300BB3242384F839302268D36848
:1028F00023F40053D3602046FFF724FE22681369B7
:1029000023F4904313612268536923F02A0353612F
:102910002268D36843F40053D3600020E06320238F
:1029200084F8393084F83A3010BD80F8383000F03F
:1029300091FBD8E7012070472DE9F04182B01E4697
:1029400090F83930DBB2202B55D104460D46904625
:10295000002955D0002A55D090F83830012B53D09B
:10296000012380F838300023C363212380F83930F5
:10297000FEF7E8FA0746A4F82480A4F8268010E0C1
:1029800000963B46002280212046FFF775FF002875
:102990003CD12B882268C3F3080353602369C3B971
:1029A0000235E38C9BB2B3B1E38C013B9BB2E38471
:1029B000A368B3F5805FE3D000963B4600228021F8
:1029C0002046FFF759FF18BB2A7823685A60013563
:1029D000E7E70135E5E700963B4600224021204627
:1029E000FFF74AFF0346A8B9202284F839200022C5
:1029F00084F8382000E00223184602B0BDE8F081D8
:102A00000123F9E70123F7E70223F5E70323F3E7BF
:102A10000323F1E70323EFE72DE9F0438DB00546EB
:102A20004FF03D098DF82C904FF000088DF82D8067
:102A30000A24009402230BAA5021FFF743F82046F2
:102A4000FEF786FA4A4B1B880CAA22F8083D009430
:102A5000022350212846FFF735F82046FEF778FA82
:102A600008238DF82430434F3A78434E33789B0047
:102A700043EA42135BB2727813438DF82530009419
:102A8000022309AA50212846FFF71CF82046FEF72A
:102A90005FFA8DF82040B2787B7843EAC2038DF864
:102AA00021300094022308AA50212846FFF70AF893
:102AB0002046FEF74DFA0B238DF81C30BB788DF8BD
:102AC0001D300094022307AA50212846FEF7FAFF82
:102AD0002046FEF73DFA8DF8188009238DF819304D
:102AE00001238DF81A30FA78F378DB0043EA4213B9
:102AF0005BB2327913438DF81B300094042306AA8D
:102B000050212846FEF7DEFF2046FEF721FA072374
:102B10008DF814308DF815800094022305AA5021F9
:102B20002846FEF7CFFF2046FEF712FA3E238DF827
:102B300010303B798DF811300094022304AA502103
:102B40002846FEF7BFFF2046FEF702FA8DF80C90EC
:102B500073798DF80D300094022303AA5021284682
:102B6000FEF7B0FF3220FEF7F3F90DB0BDE8F083B9
:102B7000B8580008040200200800002000B585B005
:102B80006423029312230193009101230822502110
:102B9000FFF75AF805B05DF804FB000010B582B0ED
:102BA000002401940D4B1A6B42F400121A631B6B44
:102BB00003F400130193019B224621460B20FEF7EC
:102BC000EDF90B20FEF71EFA224621461120FEF7F2
:102BD000E5F91120FEF716FA02B010BD00380240E8
:102BE00082B0002100910B4B1A6B42F001021A6374
:102BF0001A6B02F001020092009A01911A6B42F0E6
:102C000002021A631B6B03F002030193019B02B0E3
:102C1000704700BF0038024008B50B480B4B0360FB
:102C20000B4B436000238360C3604FF4804202611A
:102C300043618361C3610362FEF7B6FE00B908BD5C
:102C400000F044F9FBE700BF84020020005400407C
:102C5000A086010070B588B0002303930493059308
:102C6000069307930268304B9A4201D008B070BDBA
:102C70000446002501952D4E336B43F00203336368
:102C8000336B03F002030193019B4FF440730393F2
:102C9000122304930123059303230693042307932C
:102CA00003A92348FEF78AFB0295336C43F4001313
:102CB0003364336C03F400130293029B1D481E4BD4
:102CC00003604FF0007343608560C5604FF480631C
:102CD000036145618561C56105624562FEF71AFAC7
:102CE000D8B9144BA3639C631448154B03604FF091
:102CF00000734360402383600023C3604FF480620D
:102D0000026143618361C36103624362FEF702FAB9
:102D100030B90A4B63639C63A8E700F0D7F8E0E79B
:102D200000F0D4F8F5E700BF00540040003802403E
:102D300000040240D802002010600240240200205B
:102D4000A060024000B583B001900A23012201A9CE
:102D50000448FFF7F1FD0028F7D1019803B05DF8B2
:102D600004FB00BF3803002030B595B030220021AD
:102D700008A800F0FDF90024039404940594069437
:102D8000079401941B4B1A6C42F080521A641B6C1E
:102D900003F080530193019B0294174B1A6842F48D
:102DA00080421A601B6803F480430293029B022551
:102DB000089501230B9310230C930E950F94082371
:102DC0001093A023119312950723139308A8FFF7DC
:102DD000AFF80F230393049505944FF4A053069383
:102DE0004FF480530793052103A8FFF7D9FA15B0D4
:102DF00030BD00BF003802400070004030B52DEDFE
:102E0000028B8BB0FEF778F8FFF7AEFFFFF7E8FE16
:102E1000FFF7C4FE00F004F9FFF7FEFE274800F0BC
:102E20007FFE2748FFF7F8FD4FF49670FEF790F805
:102E300005A92348FFF7A2FE9DF815209DF8143040
:102E400043EA02231BB29DF817109DF8162042EAB0
:102E5000012212B207EE102A9DF819109DF81820D1
:102E600042EA012212B207EE903AF8EEE77ADFED7D
:102E7000156AB8EEC77A87EE268A07EE102AB8EEF2
:102E8000C77AC7EE268AC7EEA67A17EE900AFDF734
:102E900003FB04460D4618EE900AFDF7FDFACDE956
:102EA000020118EE100AFDF7F7FACDE900012246FB
:102EB0002B46054800F0C0FDB6E700BFE458000807
:102EC000840200200000C842EC580008704700004F
:102ED00000B583B0002100910C4B5A6C42F4804243
:102EE0005A645A6C02F480420092009A01911A6C62
:102EF00042F080521A641B6C03F080530193019BD3
:102F00000720FEF739F803B05DF804FB00380240F3
:102F10007047FEE7FEE7FEE7FEE770477047704741
:102F200008B5FEF703F808BD08B50248FEF758F9E2
:102F300008BD00BFD802002008B50248FEF750F9CE
:102F400008BD00BF2402002070B50D4616460024BF
:102F500004E0AFF30080287001340135B442F8DB9F
:102F6000304670BD70B51646002405E04D1C08784B
:102F7000FFF7E8FE01342946B442F7DB304670BD66
:102F800008B503460B4A126842B10A4A1068034466
:102F90006A46934206D8074A136008BD054A0649A7
:102FA0001160F2E700F0BAF80C2303604FF0FF3035
:102FB000F3E700BF10020020800300204FF0FF3035
:102FC00070474FF400534B6000207047012070475A
:102FD000002070470F49D1F8883043F47003C1F8DE
:102FE00088300D4B1A6842F001021A600020986088
:102FF0001A6822F0847222F480321A60074A5A60FA
:103000001A6822F480221A60D8604FF000638B6047
:10301000704700BF00ED00E000380240103000248F
:1030200008B50A480A4B03604FF4E13343600023BC
:103030008360C36003610C2242618361C361FFF757
:103040004CFC00B908BDFFF741FFFBE73803002047
:103050000044004000B589B0002303930493059316
:10306000069307930268164B9A4202D009B05DF8A6
:1030700004FB0021019103F5FA331A6C42F400328B
:103080001A641A6C02F400320192019A02911A6BCE
:1030900042F001021A631B6B03F001030293029BCF
:1030A0000C23039302230493012305930323069324
:1030B0000723079303A90348FEF780F9D6E700BF6B
:1030C0000044004000000240DFF834D0002103E05B
:1030D0000C4B5B58435004310B480C4B42189A423E
:1030E000F6D30B4A02E0002342F8043B094B9A4214
:1030F000F9D3FFF76FFF00F017F8FFF77FFE704777
:1031000000000220D85B000800000020E801002039
:10311000E80100207C030020FEE70000014B186856
:10312000704700BF1800002070B50D4E0D4CA41B59
:10313000A4100025A54209D10B4E0C4C02F0AAFBAD
:10314000A41BA4100025A54205D170BD56F825305A
:1031500098470135EEE756F8253098470135F2E7F4
:10316000D05B0008D05B0008D05B0008D45B00088F
:1031700002440346934200D1704703F8011BF9E76C
:103180002DE9FF4755EC104B0D9FDDF830A0002DC9
:103190000E4691461946B8BF22462B4627F0200717
:1031A000BBBF05F100431D4600232D23B8BF1446C5
:1031B000462F0B7004D0452F00D10136022100E0CC
:1031C000032103AB019302AB00933246534645EC17
:1031D000104B00F0F9FD472F804602D119F0010F86
:1031E00026D0462F08EB060911D198F80030302B75
:1031F0000AD10022002320462946FDF7E9FD18B92F
:10320000C6F10106CAF80060DAF8003099440022DD
:10321000002320462946FDF7DBFD38B93022039B09
:103220004B4505D2591C03911A70F8E7CDF80C9064
:10323000039B0E9AA3EB08034046136004B0BDE85D
:10324000F087F7B500290446BABF49422D232B2346
:10325000092904F8022B437020DD0DF107031F46F6
:103260000A2691FBF6F506FB15113031092D03F8FE
:10327000011C03F1FF32294609DC3031023B02F820
:10328000011CBB42224604D3101A03B0F0BD134602
:10329000E7E713F8012B04F8012BF2E73023194478
:1032A0008370021DC170EFE72DE9F04F8DB00C4621
:1032B000DDF8588016461F46054601F0B7FC036846
:1032C00004931846FDF7C0FA00230A93D8F800309B
:1032D0000590073323F0070303F1080294F818A0C0
:1032E000D4F800B0C8F80020D3E90023C4E91223C1
:1032F000D4E9128929F000430793CDF818804FF0E4
:10330000FF32A74BDDE90601FDF794FD70BB4FF0DE
:10331000FF32A34BDDE90601FDF76EFD30BB002255
:10332000002340464946FDF75DFD10B12D2384F88A
:1033300043309C4A9C4BBAF1470F8CBF904698464D
:1033400003232BF00402236122604FF00009009751
:1033500033460BAA2146284600F0E6F9013040F03A
:103360008D804FF0FF300DB0BDE8F08F42464B46E8
:1033700040464946FDF75EFD10B18C4A8C4BDAE7BA
:1033800061684B1C4BF480620AA83ED1062363603F
:103390000023CDE9020309AB009349EC108B0DF13A
:1033A00023032260CDF804A061682846FFF7E8FEF9
:1033B0000AF0DF03472B804609D1099BD81C02DBAA
:1033C0006268934247DDAAF1020A5FFA8AFABAF10B
:1033D000650F099924D80139524604F1500009912A
:1033E000FFF72FFF0A9A1318012A8146236102DC96
:1033F0002268D10701D5013323619DF82330002BCA
:10340000A5D02D2384F84330A1E7BAF1670F00F06F
:103410007781BAF1470FBBD10029B9D10123B6E7B3
:10342000BAF1660F19D1002963680CDD216113B967
:103430002268D20702D501330B442361099BA3659F
:103440004FF00009D9E713B92268D00701D502333C
:10345000F3E70123F1E74FF0670ADDE90932934210
:1034600005DB22682361D107E8D50133E5E7002BAE
:10347000D4BFC3F1020301231344DEE723685A05D6
:1034800007D42369424631462846B84701302BD13C
:1034900067E7BAF1650F40F2DC8000220023D4E92F
:1034A0001201FDF795FC002833D00123414A314633
:1034B0002846B84701303FF454AFDDE909239A426A
:1034C00002DB2368D8070FD5DDE9042331462846FF
:1034D000B84701303FF445AF4FF0000804F11A0936
:1034E0000A9B013B434509DC23689B0700F10381EC
:1034F000E0680B9B9842B8BF184634E701234A4660
:1035000031462846B84701303FF42BAF08F1010897
:10351000E6E7099B002B2BDC0123264A314628468F
:10352000B84701303FF41DAF099B23B90A9B13B97B
:103530002368D907D8D5DDE9042331462846B847A2
:1035400001303FF40EAF4FF0000904F11A0A099B55
:103550005B424B4501DC0A9B94E70123524631460E
:103560002846B84701303FF4FCAE09F10109EEE707
:103570000A9AA36D9A42A8BF1A46002A914607DD0F
:103580001346314642462846B84701303FF4E9AE7B
:1035900004F11A034FF0000B29EAE979069315E0CC
:1035A000FFFFEF7F105900080C5900081859000858
:1035B000145900081C5900080123069A3146284670
:1035C000B84701303FF4CDAE0BF1010BD4F858A051
:1035D000AAEB09035B45EFDCDDE909239A42D044FD
:1035E00015DB2368DA0712D40A9B0999A3EB0A02B8
:1035F000A3EB010A9245A8BF9246BAF1000F0EDC78
:103600004FF000082AEAEA7A04F11A0919E0DDE924
:10361000042331462846B8470130E5D1A1E6534698
:10362000424631462846B8470130E9D199E60123A0
:103630004A4631462846B84701303FF492AE08F179
:103640000108DDE909239B1AA3EB0A034345EEDCDD
:103650004AE70A9A012A01DCDB073AD501234246F0
:1036600031462846B84701303FF47BAEDDE90423FC
:1036700031462846B847013008F101083FF471AEE1
:103680000A9B002203F1FF3AD4E912010023FDF75F
:103690009FFBC8B95346424631462846B8470130D9
:1036A0000ED15EE60123524631462846B847013026
:1036B0003FF457AE08F101080A9B013B4345F1DC9A
:1036C0004B4604F15002DEE64FF0000804F11A0AFE
:1036D000F2E70123DFE701234A4631462846B8478F
:1036E00001303FF43EAE08F10108E3680B9A9B1AE3
:1036F0004345F0DCFCE64FF0000804F11909F4E75B
:1037000000293FF48BAE0023CDE9020309AB0093FF
:1037100049EC108B2260CDF804A00DF1230328465C
:10372000FFF72EFD804648E62DE9F04791461F46FB
:103730008A680B69DDF820809342B8BF1346C9F848
:10374000003091F8432006460C4612B10133C9F807
:1037500000302368990642BFD9F800300233C9F817
:103760000030256815F0060507D104F1190AE36851
:10377000D9F800209B1AAB4228DC94F84330226829
:10378000003318BF012392062DD404F143023946B9
:103790003046C047013020D02368E568D9F80020C2
:1037A00003F00603042B08BFAD1AA36822690CBFFF
:1037B00025EAE57500259342C4BF9B1AED184FF02A
:1037C00000091A344D451AD1002008E00123524661
:1037D00039463046C047013003D14FF0FF30BDE8D5
:1037E000F0870135C3E7E1185A1C302081F8430007
:1037F000224494F8451082F843100233C5E70123B0
:10380000224639463046C0470130E6D009F1010969
:10381000D8E700002DE9F04301F1430C0C46097E86
:1038200085B06E291746064698460C9A00F0B3807C
:1038300022D8632936D00AD8002900F0B980582947
:1038400000F0838004F1420584F8421032E06429DC
:1038500001D06929F6D120681368050603F1040137
:103860002AD51B681160002B03DA2D225B4284F8F5
:1038700043206F480A2239E0732900F09D8008D860
:103880006F2920D07029DDD1236843F02003236005
:1038900003E0752917D07829D4D1782384F84530EE
:1038A000644855E01368191D1B68116004F1420556
:1038B00084F8423001238CE01B68116010F0400F47
:1038C00018BF1BB2CFE713682568181D10602806C3
:1038D00001D51B6802E06806FBD51B8854486F2998
:1038E00014BF0A220822002184F843106568A560ED
:1038F000002DC0F29580216821F004012160002B89
:103900003DD1002D40F08E806546082A0BD12368FA
:10391000DB0708D5236962689A42DEBF302305F8C9
:10392000013C05F1FF35ACEB05032361CDF80080C8
:103930003B4603AA21463046FFF7F6FE01304DD143
:103940004FF0FF3005B0BDE8F083394884F84510EA
:10395000136821681D1D1B6815600A060BD5CA0770
:1039600044BF41F0200121601BB9226822F02002EF
:1039700022601022B7E74D0648BF9BB2EFE76546CD
:10398000B3FBF2F102FB1133C35C05F8013D0B46BA
:103990000029F5D1B9E7136825686169181D106021
:1039A00028061B6801D5196002E06A06FBD519805C
:1039B000002323616546B9E71368191D11601D686E
:1039C000626800212846FCF74BFF08B1401B60608D
:1039D00063682361002384F84330A7E723692A46FC
:1039E00039463046C0470130AAD023689B0713D41C
:1039F000E068039B9842B8BF1846A3E701234A46F4
:103A000039463046C04701309AD00135E368039A01
:103A10009B1AAB42F2DCEBE7002504F11909F5E74C
:103A2000002BACD1037884F8423004F142056CE7F6
:103A30001E5900082F5900080FB40A4B13B51C6813
:103A400024B1A36913B9204601F066F805AB049AC6
:103A5000A1680193204601F029FD02B0BDE81040A5
:103A600004B070471800002070B50E46054618B126
:103A700083690BB901F050F8AB69AC6813B92846FB
:103A800001F04AF8234B9C4217D16C68A3891B07AD
:103A90001DD52369DBB1013EA36816F8011F013B68
:103AA000A360E9B9002B2EDA22460A21284600F04D
:103AB0003FF8013011D00A2011E0174B9C4201D190
:103AC000AC68E3E7154B9C4208BFEC68DEE7214693
:103AD000284600F07FF80028DDD04FF0FF3070BDA1
:103AE000002B04DAA2699A4206DC0A2904D0236872
:103AF0005A1C22601970CFE72246284600F018F8B9
:103B00000130C9D1E9E723680A205A1C22601870E5
:103B1000E5E700BF705900089059000850590008A7
:103B2000024B01461868FFF79FBF00BF1800002036
:103B3000F8B50E461446054618B183690BB900F076
:103B4000EBFF214B9C422AD16C68A369A360A38937
:103B50001A072ED5236963B323692068C01A6369E5
:103B6000F6B28342374604DC2146284600F06AFF5D
:103B700028BBA368013BA36023685A1C22601E7007
:103B800063690130834204D0A389DB0719D50A2E6B
:103B900017D12146284600F055FF90B10FE00B4B9E
:103BA0009C4201D1AC68D0E7094B9C4208BFEC684D
:103BB000CBE72146284600F00DF80028CCD04FF086
:103BC000FF373846F8BD00BF70590008905900080B
:103BD00050590008324B70B51D6806460C4625B199
:103BE000AB6913B9284600F097FF2E4B9C420FD1CA
:103BF0006C68B4F90C309AB215072CD4D00611D4E5
:103C00000922326043F04003A3814FF0FF303EE0D1
:103C1000254B9C4201D1AC68EBE7244B9C4208BF8A
:103C2000EC68E6E7510712D5616B41B104F144033A
:103C3000994202D0304601F067FB00236363A389F9
:103C400023F02403A3810023636023692360A389F5
:103C500043F00803A38123694BB9A38903F42073BC
:103C6000B3F5007F03D02146304601F011F8A28958
:103C700012F001030CD00023A36063695B42A361CF
:103C8000236953B9B4F90C3013F08000BAD170BD78
:103C9000920758BF6369A360F2E70020F7E700BF0F
:103CA0001800002070590008905900085059000869
:103CB0002DE9F74F03690C69A3428046C0F2828068
:103CC000013C01F114074FEA840C00F1140657F887
:103CD000245056F8240006EB0C03013507EB0C09C1
:103CE0000193B0FBF5F595B34FF0000A3846B646A0
:103CF000D34650F8042B93B205FB03A34FEA134AB3
:103D00009BB2ABEB0303120CDEF800B005FB02A282
:103D100013FA8BF34FEA124A1FFA82FBDEF80020F7
:103D2000CBEB124202EB23429BB243EA02438145B2
:103D30004FEA224B4EF8043BDBD256F80C3033B935
:103D4000019B043B9E421A4630D3C8F810404046BF
:103D500001F006FA002825DB013530464FF0000C53
:103D600057F8042BD0F800E093B2ACEB0303120C2D
:103D700013FA8EF3C2EB1E4202EB23429BB243EADC
:103D80000243B9454FEA224C40F8043BE8D256F8CA
:103D9000242006EB84032AB9043B9E421A460BD327
:103DA000C8F81040284603B0BDE8F08F1268043B05
:103DB000002ACAD1013CC5E71268043B002AEFD1B2
:103DC000013CEAE70020EEE72DE9F04F57EC106BDD
:103DD00097B0456A069104460B921293DDF88080F5
:103DE000CDE900673DB9102000F092FF6062C0E9A4
:103DF00001550560C560636A196851B15A684A6027
:103E0000012393408B60204600F0C9FF636A0022C3
:103E10001A603B1EBBBF23F0004301930023012225
:103E2000ACBFC8F80030C8F80020AF4BDDF8048004
:103E300033EA080314D1129A42F20F731360009B05
:103E400023B9C8F31300002800F04285219BDFF856
:103E5000ACB2002B00F044850BF1030300F03EBD33
:103E6000DDE900670022002330463946FCF7B0FF49
:103E7000814668B1129A01231360219B002B00F048
:103E800024859A4B219A03F1FF3B136000F028BD73
:103E900014AA15A947EC106B204601F0D8F9C8F315
:103EA0000A550490002D7CD0C7F3130343F07F5BC9
:103EB000B2464BF4401BA5F2FF35CDF84C900022E2
:103EC0008B4B50465946FCF787F981A3D3E9002371
:103ED000FCF716FD80A3D3E90023FCF77FF9064623
:103EE00028460F46FCF7C6FA7DA3D3E90023FCF76A
:103EF00007FD02460B4630463946FCF76FF9064689
:103F00000F46FCF7ADFF00228246002330463946BB
:103F1000FCF768FF48B15046FCF7ACFA32463B4626
:103F2000FCF756FF08B90AF1FF3ABAF1160F59D853
:103F3000704901EBCA01DDE90023D1E90001FCF77A
:103F40006FFF002850D00AF1FF3A00230F93149B13
:103F50005D1BB5F1010849BFC5F1010300230593BD
:103F60004FF0000858BF0593BAF1000F3EDB002365
:103F7000D044CDF838A00793069B092B00F290801F
:103F8000052BC4BF043B0693069BA3F10203CCBFE1
:103F900000250125032B00F28F80DFE803F07D7FF1
:103FA0003171DDE914531D4405F23240202813DD40
:103FB000C0F14000009B08FA00F805F2124023FA15
:103FC00000F048EA0000FCF745FA01238246A1F11F
:103FD000F87B013D139372E7009BC0F1200003FAC8
:103FE00000F0F0E70123B1E70F90B0E7059BA3EBEA
:103FF0000A030593CAF10003079300230E93BBE75E
:1040000001230A930B9B002B59DD02939946666AA4
:1040100000227260042202F114009842716853D9A0
:10402000204600F088FE636A3060B9F10E0FD3F8C5
:1040300000B000F2E680002D00F0E3809DED007BF3
:10404000BAF1000F8DED107B74DD2A4A0AF00F03E0
:1040500002EBC30393ED007B4FEA2A16F0068DEDC9
:10406000087B65D5244BDDE91001D3E90823FCF773
:1040700071FDCDE9000106F00F0603251E4F4CE04F
:1040800001230A930B9B534403F1010902934B460E
:10409000012BB8BF0123BAE70023B2E70023F0E702
:1040A0000125002306930A954FF0FF3302939946AA
:1040B000002212230B92AAE701230A93F4E70123BB
:1040C000029399461A46F5E7013171605200A2E762
:1040D00061436F63A787D23FB3C8608B288AC63F0E
:1040E000FB799F501344D33F0000F07F1D59000817
:1040F0000000F83FD8590008B05900084959000895
:10410000F10708D5DDE90801D7E90023FCF7F8FB42
:10411000CDE90801013576100837002EF0D1DDE930
:104120000823DDE90001FCF715FDCDE900011AE0E7
:104130000225A3E700F0A080CAF100069F4BA04F24
:1041400006F00F0203EBC203D3E90023DDE91001FF
:10415000FCF7D6FBCDE90001361100230225002E25
:104160007FD1002BE1D10F9B002B00F08780DDE990
:1041700000670022934B30463946FCF733FE002897
:104180007CD0B9F1000F79D0029B002B35DD0AF10C
:10419000FF330893394600228B4B3046FCF7B0FBC7
:1041A000CDE90001029F01352846FCF763F9DDE9FE
:1041B0000023FCF7A5FB0022844BFCF70FF8054613
:1041C000A1F15076002F5DD10022814BDDE9000185
:1041D000FCF702F82A463346CDE90001FCF720FE41
:1041E000002840F088822A4606F10043DDE90001FC
:1041F000FCF7F8FD002840F07C82DDE91023CDE9D2
:104200000023159B002BC0F25081BAF10E0F00F372
:104210004C816A4B03EBCA0393ED007B0B9B002B95
:104220008DED027B80F2D880B9F1000F00F3D480CD
:1042300040F05E820022664B51EC170BFCF760FBEE
:10424000DDE90023FCF7E2FD4F464E46002840F032
:10425000348231230BF101058BF800300AF1010A99
:104260002FE2F20705D5D7E90023FCF749FB01351A
:1042700001237610083772E7022574E7CDF820A0F5
:104280004F4691E74D4B03EBC70353E902010A9BED
:10429000002B47D002460B4600204E49FCF75AFC43
:1042A0002A463346FBF798FFCDE90C015D46DDE970
:1042B0000001FCF7D5FD0646FCF7DCF802460B468C
:1042C000DDE90001FBF788FF303605F8016BDDE919
:1042D0000C23CDE90001FCF785FD002863D1DDE961
:1042E000002300203749FBF777FFDDE90C23FCF7BB
:1042F00079FD002840F0B780A5EB0B039F427FF7C4
:104300007CAF0022304BDDE90C01FCF7F9FA00220A
:10431000CDE90C012C4BDDE90001FCF7F1FACDE908
:104320000001C4E72A463346FCF7EAFACDE90C015E
:104330000BEB07055E46DDE90001FCF791FD074642
:10434000FCF798F8303702460B46DDE90001FBF731
:1043500043FF06F8017BAE42CDE900014FF00002B9
:1043600026D11C4BDDE90C01FBF738FF02460B465A
:10437000DDE90001FCF754FD002874D1DDE90C23D0
:1043800000201449FBF728FF02460B46DDE9000137
:10439000FCF728FD00283FF430AF15F8013C302B26
:1043A00005F1FF3202D0DDF820A04AE01546F4E71F
:1043B000054BFCF7A5FACDE90001BCE7D859000888
:1043C000B05900080000F03F0000244000001C40ED
:1043D000000014400000E03FDDE900675D46DDE9D4
:1043E000022330463946FCF7B5FBFCF739FD804621
:1043F000FCF740F8DDE90223FCF782FA02460B469F
:104400003046394608F13006FBF7E6FE05F8016B49
:10441000A5EB0B06B14502460B4639D1FBF7DEFE94
:10442000DDE9022306460F46FCF7FAFCC8B9DDE9D0
:10443000022330463946FCF7CBFC10B118F0010FCF
:104440000FD10499204600F0AAFC0023129A2B7089
:104450000AF101031360219B002B00F041821D60D3
:104460003EE2CDF820A015F8012C392A05F1FF33E2
:1044700008D19B450AD1089B0133089330238BF860
:1044800000305B461A7801321A708CE71D46EAE765
:1044900000229B4BFCF734FA0022002306460F460D
:1044A000FCF796FC00289AD0CBE70A9A002A00F085
:1044B0008B80069A012A6EDC139A002A67D003F2D9
:1044C0003343079F059D059A01211A442046059212
:1044D000984400F004FD0646002D0CDDB8F1000FF5
:1044E00009DD4545059A2B46A8BF4346D21A0592D9
:1044F000ED1AA8EB0308079BEBB10A9B002B67D0D2
:104500008FB131463A46204600F088FD049A0146B4
:104510000646204600F0ECFC04990890204600F086
:104520003EFC089B0493079BDA1B04D004992046A9
:1045300000F074FD04900121204600F0D0FC0E9B99
:104540000746002B00F0D0811A460146204600F0B5
:1045500065FD069B012B074640DC009B002B39D1F3
:10456000019BC3F31303002B36D1019B23F00043BF
:104570001B0D1B052BB1059B0133059308F10108A9
:10458000012307930E9B002B2AD1012030E0149BBE
:10459000C3F1360395E7079B09F1FF37BB42BFBF65
:1045A000079B0797FA1A0E9BBBBF9B180E93DF1B46
:1045B0000027B9F1000FB5BF059B059DA3EB0905C9
:1045C0004B46B8BF00237EE7079F059D0A9E83E701
:1045D000079AABE70023D4E7009BD2E700230793B9
:1045E0003B6907EB8303186900F02BFCC0F1200046
:1045F000404410F01F0047D0C0F12003042B3BDDE6
:10460000059BC0F11C000344059305448044059BB1
:10461000002B05DD1A460499204600F04DFD04905C
:10462000B8F1000F05DD39464246204600F044FD52
:1046300007460F9B53B33946049800F091FD0028BC
:1046400024DA00230A220499204600F0BFFB0A9BCB
:1046500004900AF1FF3A002B00F04D81002331460F
:104660000A22204600F0B2FB029B002B06464FDCDC
:10467000069B022B4CDD11E0C9D0059A1C331A446D
:1046800005921D449844C2E70346F6E7B9F1000FCE
:1046900038DC069B022B35DDCDF80890029B63B910
:1046A00039460522204600F091FB01460746049852
:1046B00000F056FD00283FF7CCAD0B9B5D466FEA3E
:1046C000030A4FF000093946204600F068FB002E2F
:1046D0003FF4B7AEB9F1000F05D0B14503D049465C
:1046E000204600F05CFB3146204600F058FBA8E66F
:1046F00000273E46E1E7DDF820A03E46A9E500BFE1
:10470000000024400A9BCDF80890002B00F0FA80AE
:10471000002D05DD31462A46204600F0CDFC064638
:10472000079B002B4CD07168204600F004FB3269D7
:1047300002320546920006F10C010C3000F0F0FA4E
:1047400001222946204600F0B7FC009BCDF814B0AA
:1047500003F00103B1460793064639460498FFF774
:10476000A7FA4946054600F13008049800F0F8FC25
:10477000324600903946204600F00CFDC3680246E0
:1047800003BB01460890049800F0EAFC089A03462F
:1047900011462046089300F002FB089BA3B9069A35
:1047A00092B9079A82B9B8F1390F29D0009B002B32
:1047B00001DD05F13108059B5D1C83F8008082E76F
:1047C0003046C2E70123E3E7009A002A04DB25D143
:1047D000069A1ABB079A0ABB002BECDD012204994A
:1047E000204600F069FC3946049000F0B9FC00282E
:1047F00003DCE0D118F0010FDDD0B8F1390FD8D1CA
:10480000059B059A5D1C3923137015F8013C392B63
:1048100005F1FF324FD00133137054E7059A002B96
:1048200002F1010506DDB8F1390FE9D008F1010800
:10483000059BC2E7029A05F8018CA5EB0B03934296
:1048400021D000230A220499204600F0BFFAB14586
:1048500004904FF000034FF00A024946204605D16C
:1048600000F0B4FA81460646059576E700F0AEFA08
:104870003146814600230A22204600F0A7FA064668
:10488000F2E74FF0000901220499204600F014FCE1
:104890003946049000F064FC0028B6DC02D118F020
:1048A000010FB2D115F8013C302B05F1FF327FF436
:1048B0000AAF1546F6E7934505D131230AF1010AFF
:1048C0008BF80030FFE615469FE7DFF864B007E09D
:1048D000219BDFF860B01BB10BF10803219A136034
:1048E000584617B0BDE8F08F069B012B7FF735AE19
:1048F0000E9B079349E6029B002B03DC069B022BD1
:104900003FF7CCAE5D4639460498FFF7D1F900F188
:10491000300805F8018B029AA5EB0B039A42B0DD33
:1049200000230A220499204600F050FA0490EAE796
:104930001C590008405900088A892DE9F0410546B4
:1049400010070C4658D44B68002B05DC0B6C002B71
:1049500002DC0020BDE8F081E66A002EF9D00023D9
:1049600012F480522F68216A2B6032D0606DA389C7
:104970005A0705D56368C01A636B0BB1236CC01A64
:1049800000230246E66A216A2846B047431CA389F1
:1049900006D129681D2948D8294ACA40D60744D5D6
:1049A00000226260D9042269226004D5421C01D130
:1049B0002B6803B96065616B2F600029C9D004F1D1
:1049C0004403994202D0284600F09EFC0020606318
:1049D000C0E701232846B047411CC8D12B68002BF3
:1049E000C5D01D2B01D0162B01D12F60B1E7A389B3
:1049F00043F04003A381ADE70F69002FA9D09307CF
:104A00000E6808BF4B690F6018BF0023A6EB0708AC
:104A10008B60B8F1000F9CDD43463A46216AA66AD6
:104A20002846B047002806DCA38943F04003A38151
:104A30004FF0FF308EE70744A8EB0008E9E700BF1E
:104A40000100402038B50B6905460C46DBB118B1B2
:104A500083690BB900F060F80C4B9C4209D16C687B
:104A6000B4F90C307BB121462846BDE83840FFF749
:104A700063BF074B9C4201D1AC68F1E7054B9C42F8
:104A800008BFEC68ECE7002038BD00BF7059000893
:104A90009059000850590008002310B50446C0E999
:104AA0000033836081814366C281C0E9043383613E
:104AB000194608225C30FEF75BFB054B6362054B31
:104AC000A362054BE362054B2462236310BD00BF64
:104AD000F95600081B57000853570008775700087D
:104AE000014900F085B800BF454A000870B54A1E6C
:104AF000682555430E4605F1740100F053FC044649
:104B000040B10021C0E900160C30A06005F1680238
:104B1000FEF72EFB204670BD836910B5044633BBFB
:104B2000C0E912330365124B124A1B688262984235
:104B300004BF0123836100F01FF86060204600F08D
:104B40001BF8A060204600F017F80022E060042166
:104B50006068FFF7A1FF01220921A068FFF79CFF11
:104B600002221221E068FFF797FF0123A36110BD25
:104B700008590008E14A0008F8B51B4B1E68B369E4
:104B8000074613B93046FFF7C7FF4836D6E9013468
:104B9000013B03D5336833B13668F7E7B4F90C50FD
:104BA0006DB16834F4E704213846FFF79FFF3060A9
:104BB0000028F1D10C233B6004462046F8BD0B4B86
:104BC0006566C4E90055A560C4E90335C4E9055527
:104BD0000822294604F15C00FEF7CAFAC4E90D5523
:104BE000C4E91255E9E700BF085900080100FFFFBA
:104BF0002DE9F8438046894600F14804002614B99F
:104C00003046BDE8F883D4E90175013F01D5246839
:104C1000F5E7AB89012B07D9B5F90E30013303D085
:104C200029464046C84706436835EEE7044B1B68F3
:104C3000186A044B002808BF1846F030704700BFC0
:104C4000180000207C00002070B50E46B1F90E104F
:104C5000002996B014461D4607DA00232B60B3895D
:104C60001A0610D44FF480630EE06A4600F0AAFDE5
:104C70000028F2DB019A02F47042A2F500535A4276
:104C80005A412A60EEE740230020236016B070BD31
:104C90008B8973B59D0706460C4607D504F147037B
:104CA000236023610123636102B070BD01AB6A46DA
:104CB000FFF7CAFF00990546304600F073FB48B97C
:104CC000B4F90C309A05EFD423F0030343F0020348
:104CD000A381E3E70D4BB362A389206043F0800317
:104CE000A381009B6361019B20615BB1B4F90E104D
:104CF000304600F079FD28B1A38923F0030343F087
:104D00000103A381A3891D43A581CDE7E14A0008E2
:104D1000024B0146186800F045BB00BF1800002098
:104D200010B5431E0A44914200D110BD11F8014B49
:104D300003F8014FF7E770B5456A04460E463DB9E2
:104D40001020FFF7E5FF6062C0E901550560C5600E
:104D5000656AEB6883B1636ADB6853F82600B8B90B
:104D6000012101FA06F56A1D9200204600F0BEFA04
:104D700060B1C0E901650EE021220421204600F067
:104D8000B5FA636AE860DB68002BE4D1002070BDEF
:104D9000026843F826200023C0E90333F7E770B523
:104DA000446A06460D463CB91020FFF7B1FF706219
:104DB000C0E901440460C4603DB1736A6A68DB689D
:104DC00053F82210296043F8225070BD2DE9F041BC
:104DD0000D691F4606460C4601F1140C0023DCF851
:104DE000000081B202FB01710F0C000C02FB00708D
:104DF00089B2013301EB00419D424FEA10474CF864
:104E0000041BECDCD7B1A368AB4212DC616830460E
:104E10000131FFF790FF2269023204F10C01804654
:104E200092000C30FFF77CFF21463046FFF7B7FFBA
:104E3000444604EB850301355F6125612046BDE8EA
:104E4000F081020C12040346B2B90304102013F0DF
:104E50007F4F04BF1B02083013F0704F04BF1B01CB
:104E6000043013F0404F04BF9B000230002B06DBE0
:104E70005B0003D5013070470020E8E72020704731
:104E8000036813F0070201460BD0DA0723D4980712
:104E900049BF5B089B0801200B605CBF0B600220D0
:104EA000704798B2A8B91B0C102013F0FF0F04BF75
:104EB0001B0A08301A0704BF1B0904309A0704BFF5
:104EC0009B080230DA0702D45B0806D001300B6081
:104ED00070471046E9E7002070472020704710B562
:104EE0000C460121FFF727FF01224461026110BD3A
:104EF0002DE9F74F14460A6923699A42B8BF0B4659
:104F00008846BCBFA0461C46D8F81070D4F8109054
:104F1000D8F80830D8F8041007EB0906B342B8BF38
:104F20000131FFF708FF00F1140505EB860E2B4653
:104F30000022734516D304F1140208F1140102EBA8
:104F4000890301EB87070093009B019293420CD8E1
:104F5000002E03DD5EF8043D002B5DD0066103B03A
:104F6000BDE8F08F43F8042BE3E7B2F800B0BBF1E3
:104F7000000F23D08946AC464FF0000859F8044B87
:104F8000DCF800A0A3B21FFA8AFA0BFB03A34FEAD6
:104F9000144ADCF8004043444FEA14480BFB0A84EF
:104FA00004EB1344E2469BB243EA04434F454FEA05
:104FB00014484AF8043B2BD8CCF80480019BB3F882
:104FC00002A00432BAF1000F20D02B688946A8460F
:104FD0004FF0000BB9F800C0B8F802400AFB0C44CF
:104FE0005C44C4469BB243EA04434CF8043B59F882
:104FF000043BB8F804B01B0C0AFB03B303EB1443E7
:105000004F454FEA134B05D8C8F8043004359BE7E9
:10501000D446B3E7E046DDE7013E99E72DE9F843E2
:10502000154612F0030206460F4607D0013A214CFE
:10503000002354F82220FFF7C9FE0746AD1035D0F3
:10504000746A3CB91020FFF763FE7062C0E9014446
:105050000460C460D6F82480D8F808404CB940F207
:1050600071213046FFF73BFF0023C8F808000446D3
:1050700003604FF00008EB070AD539462246304658
:10508000FFF736FF394681463046FFF788FE4F4628
:105090006D100BD0206838B9224621463046FFF704
:1050A00027FF2060C0F800800446E4E73846BDE8EA
:1050B000F88300BFA05A00082DE9F0470C464FEADC
:1050C000621A236949680AEB0309A3680746164672
:1050D00009F10105AB4232DB3846FFF72CFE002315
:1050E000804600F114011A4653452BDB20692AEA59
:1050F000EA7A04F1140316F01F0201EB8A0103EBB4
:10510000800C25D0C2F1200E00201E688A469640F1
:1051100030434AF8040B53F8040B9C4520FA0EF078
:1051200014D8486008B109F10205013D3846C8F8B5
:1051300010502146FFF733FE4046BDE8F0870131AD
:105140005B00C7E741F823200133CDE75146DCE798
:10515000043953F8042B41F8042F9C45F9D8E4E7AF
:1051600003690A699B1A30B50CD1920014301431CE
:105170008418114454F8045D51F8042D954203D06D
:1051800005D30123184630BDA042F3D3FAE74FF010
:10519000FF33F7E72DE9F0470D460746114628464D
:1051A0001446FFF7DDFF061E08D131463846FFF7EB
:1051B000C2FD0123C0E90436BDE8F087A4BF234641
:1051C0002C4638466168A6BF1D4600260126FFF71B
:1051D000B2FD2B69C660266905F1140904F11402B9
:1051E00002EB860709EB830800F114054FF0000E6F
:1051F00052F804AB59F8044B1EFA8AF1A3B2C91A4B
:10520000230CC3EB1A4303EB214389B24FEA234E2D
:10521000C84541EA0343944645F8043BE8D8BC45F9
:1052200004D355F8043D83B10661C5E75CF8041B5F
:105230001EFA81F31A1402EB11429BB243EA0243B5
:105240004FEA224E45F8043BE9E7013EE9E72DE944
:10525000F7430E46012159EC108B1546FFF76BFD05
:10526000C9F30A540746C9F3130334BB0193B8F1D9
:10527000000327D002A840F8083DFFF701FE00997F
:10528000F0B1019AC0F1200302FA03F30B43C240CC
:105290007B610192019BBB61002B14BF02210121A4
:1052A0003961C4B1A4F2334404443460C0F1350020
:1052B0002860384603B0BDE8F08343F48013D5E797
:1052C0007961E7E701A8FFF7DBFD019B7B61012125
:1052D00039612030E5E707EB8103A0F2324030600E
:1052E0001869FFF7AEFDC0EB4110E1E738B502FBEE
:1052F00001F4214600F056F8054618B12246002177
:10530000FDF736FF284638BD38B50546002945D09B
:1053100051F8043C0C1F002BB8BFE41800F098FAB9
:105320001F4A1368104633B9636014602846BDE80D
:10533000384000F08EBAA3420CD92168621893421B
:1053400004BF1A685B68636004BF5218226004607F
:10535000ECE713465A680AB1A242FAD919685818FC
:10536000A0420BD120680144581882421960DDD157
:10537000106852685A6001441960D7E702D90C23BB
:105380002B60D3E7206821188A4204BF1168526855
:10539000626004BF091821605C60C7E738BD00BFC8
:1053A0001802002070B5CD1C25F0030508350C2D22
:1053B00038BF0C25002D064601DBA94203D90C237A
:1053C0003360002070BD00F043FA214A1468214682
:1053D00091B9204C23681BB9304600F07DF920605C
:1053E0002946304600F078F9431C24D10C23336061
:1053F000304600F02EFAE4E70B685B1B18D40B2B49
:105400000FD90B60CD50CC18304600F022FA04F1D1
:105410000B00231D20F00700C31AD3D05A42E250DC
:10542000D0E78C424B6816BF636013600C46EBE715
:105430000C464968CCE7C41C24F00304A04205D004
:10544000211A304600F048F90130CFD02560DBE763
:10545000180200201C0200209368013B002B10B4AE
:10546000936008DA9469A34201DB0A2903D15DF84D
:10547000044BFEF75DBB1368581C1060197008469A
:105480005DF8044B7047F8B506460F461446D5182C
:10549000AC4201D1002007E03A4614F8011B304627
:1054A000FFF7DAFF431CF3D1F8BD00002DE9F04F00
:1054B0000C469DB017461D46064618B183690BB9C8
:1054C000FFF72AFB7C4B9C4258D17468A3891807CC
:1054D0005ED52369002B5BD00023099320238DF830
:1054E000293030238DF82A3003954FF0010BB84650
:1054F000454615F8013B0BB1252B54D1B8EB070AF3
:105500000BD053463A4621463046FFF7BCFF0130E8
:1055100000F0C280099B5344099398F80030002B97
:1055200000F0BA8000234FF0FF32CDE90523049349
:1055300007938DF853301A93A846052218F8011BDB
:105540005E48FBF78DF9049B78BBD90644BF202247
:105550008DF853201A0744BF2B228DF853202A7848
:105560002A2A2AD0079AA84600200A25414611F87F
:10557000013B303B092B69D960B324E0504B9C427E
:1055800001D1B468A2E74F4B9C4208BFF4689DE785
:1055900021463046FEF71EFB00289DD04FF0FF301D
:1055A0001DB0BDE8F08FA846A2E7444A801A0BFA66
:1055B00000F0184304904546BEE7039A111D126897
:1055C0000391002A01DB079204E0524243F00203F8
:1055D0000792049398F800302E2B0ED198F80130E2
:1055E0002A2B38D1039B1A1D1B680392002BB8BFCE
:1055F0004FF0FF3308F102080593334D98F800107F
:1056000003222846FBF72CF940B14023401B03FA44
:1056100000F0049B034308F10108049398F800107C
:105620002A488DF82810062208F10107FBF718F91F
:10563000002837D0264B1BBB039B073323F00703FF
:1056400008330393099B4B44099350E705FB02324F
:10565000012088468AE7002308F1010805931946CE
:105660000A25404610F8012B303A092A03D9002BAD
:10567000C3D00591C1E705FB012101238046F0E776
:1056800003AB00932246134B04A93046FDF70CFEF2
:10569000B0F1FF3F8146D5D1A3895B063FF57EAFD0
:1056A00009987DE703AB009322460A4B04A93046D4
:1056B000FEF7B0F8ECE700BF70590008AC5A0008DC
:1056C0009059000850590008B25A0008B65A00080C
:1056D000A93200088754000838B5064C0023054657
:1056E00008462360FDF74CFC431C02D1236803B13C
:1056F0002B6038BD7803002010B50C46B1F90E10B0
:1057000000F0A8F80028ABBF636DA3891B1823F431
:105710008053ACBF6365A38110BD2DE9F0411F46E6
:105720008B89DB0505460C46164605D5022300226B
:10573000B1F90E1000F068F8A389B4F90E1023F443
:105740008053A38132463B462846BDE8F04100F035
:1057500017B810B50C46B1F90E1000F055F8431CFF
:10576000A38915BF606523F4805343F48053A3815C
:1057700018BFA38110BDB1F90E1000F013B80000DE
:1057800038B5074C054608461146002222601A46E5
:10579000FDF7E8FB431C02D1236803B12B6038BD41
:1057A0007803002038B5064C0023054608462360E0
:1057B000FDF704FC431C02D1236803B12B6038BD04
:1057C0007803002038B5074C0023054608461146EB
:1057D0002360FDF7F6FB431C02D1236803B12B6065
:1057E00038BD00BF7803002038B5064C00230546BD
:1057F00008462360FDF7EAFB431C02D1236803B18E
:105800002B6038BD7803002038B5074C05460846A4
:105810001146002222601A46FDF7DAFB431C02D132
:10582000236803B12B6038BD7803002082B001B932
:1058300001A942B14BB113780B601278101C18BF4C
:10584000012002B070471046FBE76FF00100F8E757
:105850007047704738B5074C054608461146002288
:1058600022601A46FDF770FB431C02D1236803B186
:105870002B6038BD7803002049B1FF2A85BF8A23F9
:1058800003600A704FF0FF3098BF01207047084650
:1058900070470000F8B500BFF8BC08BC9E467047D2
:0C58A000F8B500BFF8BC08BC9E4670477D
:1058B000000610160006101607010000003F200029
:1058C00001350000AA0100011200000000000000E4
:1058D00000000000010203040607080900000000A0
:1058E0000102030448656C6C6F0D0000583A2025D6
:1058F0002E326620593A20252E3266205A3A20252B
:105900002E32660D0A0000001C000020494E4600A1
:10591000696E66004E414E006E616E00300030319F
:105920003233343536373839414243444546003006
:105930003132333435363738396162636465660035
:10594000496E66696E697479004E614E0000000010
:105950000000000000000000000000000000000047
:105960000000000000000000000000000000000037
:105970000000000000000000000000000000000027
:105980000000000000000000000000000000000017
:105990000000000000000000000000000000000007
:1059A00000000000000000000000000000000000F7
:1059B0000080E03779C34143176E05B5B5B893460B
:1059C000F5F93FE9034F384D321D30F94877825AD7
:1059D0003CBF737FDD4F1575000000000000F03FF5
:1059E00000000000000024400000000000005940BA
:1059F0000000000000408F40000000000088C3400D
:105A000000000000006AF8400000000080842E4181
:105A100000000000D01263410000000084D79741CD
:105A20000000000065CDCD41000000205FA00242D3
:105A3000000000E876483742000000A2941A6D4248
:105A4000000040E59C30A2420000901EC4BCD6423B
:105A500000003426F56B0C430080E03779C34143E6
:105A600000A0D8855734764300C84E676DC1AB435C
:105A7000003D9160E458E143408CB5781DAF15447A
:105A800050EFE2D6E41A4B4492D54D06CFF0804455
:105A9000F64AE1C7022DB544B49DD9794378EA446A
:105AA00005000000190000007D000000232D302BB0
:105AB0002000686C4C00656667454647004300500F
:105AC0004F534958002E0000202020202020202065
:105AD000202828282828202020202020202020209E
